S01B0000466972654269726456436F6E74726F6C312E302E737265633C
S113000071C000008EC000008CC000008AC00000D7
S113001088C0000086C0000084C0000082C00000C8
S113002080C000007EC000007CC000007AC00000D8
S113003078C0000076C0000074C0000072C00000E8
S113004070C000006EC000006CC000006AC00000F8
S113005068C0000066C0000064C0000062C0000008
S113006060C00000B0C000005CC000005AC00000C6
S113007058C0000056C0000054C0000052C0000028
S113008050C000004EC000004CC000004AC0000038
S113009048C0000046C0000044C0000042C0000048
S11300A040C000003EC000003CC000003AC0000058
S11300B038C0000036C0000034C0000032C0000068
S11300C030C000002EC000002CC000002AC0000078
S11300D028C0000026C0000024C0000022C0000088
S11300E020C0000011241FBECFEFD1E2DEBFCDBF80
S11300F000E00CBF12E0A0E0B2E0E8E4F3E000E0CE
S11301000BBF02C007900D92A430B107D9F722E0CB
S1130110A4E0B2E001C01D92A730B207E1F70AD112
S113012011C16ECFE1E2F1E010828FEF80932501DF
S113013091E0909324011092290180932801109258
S11301402B0180932A0110922D0180932C0189EABE
S1130150809320018BE08083089581B18F6081B901
S113016082B1807F82B9EAE0F1E080818861808396
S1130170EBE0F1E080818861808308958093280119
S113018060932A010895E1ECF0E010821092C0001F
S113019086E08093C2008FE58093C4001092C5006E
S11301A088E98083089592B1907F8F70982B92B9DB
S11301B0089586E0F8CF89E0F6CF85E0F4CF8AE0B1
S11301C0F2CF80E0F0CF1F920F920FB60F9211245E
S11301D00BB60F922F933F934F935F936F937F933D
S11301E08F939F93AF93BF93EF93FF932091C60098
S11301F0209306028091040290910502009749F42D
S11302002230E1F481E090E09093050280930402AF
S113021078C08130910549F42093010282E090E096
S113022090930502809304026CC0029709F069C0A0
S113023020930002109205021092040280910102A0
S1130240803831F480910002803821F4BADF59C03B
S11302508823B4F48091000288230CF040C0A9DF05
S11302609091020280910102891B880F8093010200
S113027060910002691B660F609300027FDF41C03A
S1130280809100028823B4F096DF6091020270E04E
S1130290809101029B01281B3109C901880F8093B9
S11302A0010290910002691B7109660F60930002BC
S11302B065DF27C082DF2091020230E080910102D5
S11302C0A901481B5109CA01880F8093010260915A
S11302D00002621B660F6093000250DF12C06FDFE2
S11302E06091020270E080910102861B880F809366
S11302F0010290910002691B7109660F609300026C
S11303003DDFFF91EF91BF91AF919F918F917F91CD
S11303106F915F914F913F912F910F900BBE0F9072
S11303200FBE0F901F901895F89417DF2CDFFADE9C
S11303307894089506D0F8DF3CDF60E080E01EDFAB
S10B0340FFCF0895F894FFCFEC
S1070348808080002D
S9030000FC
